:100000000C9446000C9465000C9465000C946500FB
:100010000C9465000C9465000C9465000C946500CC
:100020000C9465000C9465000C9465000C946500BC
:100030000C9465000C9467000C9465000C946500AA
:100040000C9465000C9465000C9465000C9465009C
:100050000C94CC030C9458030C9465000C9465002C
:100060000C9465000C9465000C9465000C9465007C
:100070000C9465000C9465000C9465000C9465006C
:100080000C9465000C9465000C94650011241FBE4F
:10009000CFEFD0E4DEBFCDBF11E0A0E0B1E0ECE3F4
:1000A000F3E100E00BBF02C007900D92A63AB10742
:1000B000D9F713E0A6EAB1E001C01D92AB31B10758
:1000C000E1F70E94ED040C949C090C9400001F922F
:1000D0000F920FB60F920BB60F9211242F923F92F0
:1000E0004F925F926F927F928F929F92AF92BF9248
:1000F000CF92DF92EF92FF920F931F932F933F9334
:100100004F935F936F937F938F939F93AF93BF931F
:10011000CF93DF93EF93FF9310926F005090CB0239
:10012000B09B14C080910C0390910D03A0910E031D
:10013000B0910F030196A11DB11D80930C03909304
:100140000D03A0930E03B0930F03B09A8091840027
:10015000909185003C018824992480910C03909112
:100160000D03A0910E03B0910F03DC01992788279E
:10017000680E791E8A1E9B1E4090CA0270E061E0E4
:10018000FFEFAF2EFFEFBF2EFFEFCF2EFFE7DF2EEB
:10019000EBE02E2E33243394CBE0D0E043C0629DBD
:1001A000D0011124A453BD4F1A968C911A97823016
:1001B000A1F41296ED90FD900D911C9115976E147F
:1001C0007F048006910620F01A963C921A9705C08B
:1001D000EA14FB040C051D0510F0860175011A9642
:1001E0008C911A978130D9F4872F90E08C9FF00181
:1001F0008D9FF00D9C9FF00D1124E653FD4F169638
:100200002D913D914D915C91199780859185A285A5
:10021000B385281739074A075B0708F4762F6F5F05
:1002200057016801461608F0BACF7515B1F0EBE03A
:100230005E9ED0011124A453BD4F8DB78C938EB711
:1002400011968C937E9FF0011124E453FD4F818120
:100250008EBF80818DBF7093CB02A0921003B092AD
:100260001103C0921203D0921303209184003091A5
:10027000850040E050E080910C0390910D03A09127
:100280000E03B0910F03DC0199278827280F391F2F
:100290004A1F5B1FD601C501821B930BA40BB50B34
:1002A0009C01AD0184309105A105B10524F424E041
:1002B00030E040E050E08091840090918500A0E023
:1002C000B0E0820F931FA41FB51F80509040A14043
:1002D000B04038F48091840090918500820F931F84
:1002E0000EC080918400909185008C5F9F4F28F410
:1002F000109289001092880006C084E090E09093EC
:1003000089008093880082E080936F00FF91EF91D5
:10031000DF91CF91BF91AF919F918F917F916F911D
:100320005F914F913F912F911F910F91FF90EF900F
:10033000DF90CF90BF90AF909F908F907F906F9005
:100340005F904F903F902F900F900BBE0F900FBE7D
:100350000F901F90189510928500109284001092B3
:10036000800025E02093810022E020936F002FEF92
:1003700030E4281B390B30930B0320930A031092AF
:10038000CA021092CB0210920C0310920D0310922D
:100390000E0310920F038FEF9FEFAFEFBFE7809335
:1003A000100390931103A0931203B093130380934F
:1003B000D2029093D302A093D402B093D5021092AC
:1003C000CE021092CF021092D0021092D1027894F5
:1003D00008958F929F92AF92BF92CF92DF92EF9249
:1003E000FF920F931F93CF93DF9349015A01F89423
:1003F0002091CA022F5F2093CA02C0910A03D091B4
:100400000B039E01261B370B30930B0320930A032B
:100410008883FE0192933197DF01CE014C971C92A5
:100420001197A817B907D9F77A97C082D292319756
:10043000DF019E01245230401C921197A217B3078E
:10044000D9F79F0126503040E091CA028BE0E89F27
:10045000F0011124E453FD4F82829382A482B5827D
:10046000E682F7820087118782E0828720833183CA
:100470000E946700DF91CF911F910F91FF90EF9045
:10048000DF90CF90BF90AF909F908F900895F89499
:10049000EAECF2E0E80FF11D60AF78940895482F80
:1004A0002091CB02F894E82FF0E0EE5FFC4F8081C2
:1004B000882319F08150808310C030E08BE090E0F9
:1004C000289FF001299FF00D389FF00D1124E4536F
:1004D000FD4F4E5F42870E94670078940895FF9217
:1004E0000F931F93182FF8940091CA024FEF5FEFFC
:1004F0006FEF7FEFF0E0E1E08BE0F82E212F30E0AE
:100500002E5F3F4F1EC0EF9DD0011124A453BD4F5D
:100510001A968C911A9790E08217930769F41696B1
:100520008D919D910D90BC91A02D481759076A0798
:100530007B0710F0FE2F02C0DB01CA01EF5FAC01A8
:10054000BD010E1700F7FF2341F4E12FF0E0E75360
:10055000FD4F81AD8F5F81AF11C02F2F30E08BE059
:1005600090E0289FF001299FF00D389FF00D112495
:10057000E653FD4F81E084870E94670078941F91C5
:100580000F91FF900895209184003091850040E004
:1005900050E080910C0390910D03A0910E03B09157
:1005A0000F03DC0199278827280F391F4A1F5B1F7B
:1005B000B901CA010895E091CB02ABE0EA9FF001D6
:1005C0001124E453FD4FF894A2E0A2876283738361
:1005D0008483958326833783408751870E946700F1
:1005E00008958091CB0290E02BE030E0829FF001F3
:1005F000839FF00D929FF00D1124E653FD4FDF0114
:100600001496648111967C91119712968C91129791
:1006100013969C9108958091CB0290E02BE030E0FE
:10062000829FF001839FF00D929FF00D1124E653FD
:10063000FD4FDF011896608511967C9111971296F7
:100640008C91129713969C910895F8948091CB0207
:1006500090E02BE030E0829FF001839FF00D929FAD
:10066000F00D1124E653FD4F14860E946700089593
:10067000F894E82FF0E0EE5FFC4F8081882319F0BA
:10068000815080838F5F7894089587E68093C400BB
:10069000E1ECF0E088E180831092F9011092F8011A
:1006A0001092FB011092FA01808180688083089586
:1006B0001F920F920FB60F920BB60F9211242F9329
:1006C0003F938F939F93EF93FF932091F801309185
:1006D000F9018091FA019091FB012817390731F453
:1006E0008091C1008F7D8093C1001DC0E091FA010F
:1006F000F091FB01E450FE4F80818093C600809111
:10070000FA019091FB0101969093FB018093FA010D
:100710008091FA019091FB01883C910521F410929F
:10072000FB011092FA01FF91EF919F918F913F9100
:100730002F910F900BBE0F900FBE0F901F9018952A
:100740001F93182F8A3019F48DE00E94A003809126
:10075000F8019091F9018F5F883C09F480E0E09105
:10076000F801F091F901E450FE4F1083282F30E09A
:100770008091FA019091FB0128173907C9F3309352
:10078000F9012093F8018091C10080628093C1003B
:1007900080E090E01F9108951F920F920FB60F9284
:1007A0000BB60F9211242F933F934F935F936F9348
:1007B0007F938F939F93AF93BF93EF93FF9380911A
:1007C000C6008093140381E00E946F02FF91EF91B5
:1007D000BF91AF919F918F917F916F915F914F9159
:1007E0003F912F910F900BBE0F900FBE0F901F9057
:1007F0001895EF92FF920F931F93CF93DF937C0195
:100800008091A6019091A701892B09F0A2C008EA66
:1008100011E081E00E944F028091C00084FF03C07C
:100820002EEF3FEFAAC08091C00083FDA4C090913D
:1008300014039D3011F09A3081F48AE0F80180832E
:10084000B7010E94A00388EA91E09093A7018093EA
:10085000A60182E00E946F027CC0993009F490E208
:10086000892F80528F3510F0903A78F0F1E0073FF1
:100870001F0719F4B70187E005C0F80191938F01B4
:10088000B701892F0E94A003C4CF923139F193316F
:1008900038F4933009F46FC0983009F0BACF09C02A
:1008A000973109F44BC09F3721F0953109F0B1CF52
:1008B00032C0F1E0083A1F0709F008F4AACFB701E7
:1008C00088E00E94A003B70180E20E94A003B70164
:1008D00088E00E94A003015010409BCFB7018DE03B
:1008E0000E94A003C8EAD1E004C0B70189910E9428
:1008F000A003C017D107C8F38CCFB70188E00E94CE
:10090000A003B70180E20E94A003B70188E00E9423
:10091000A0030150104081E0083A180709F068F779
:1009200078CFB70188E00E94A003B70180E20E945F
:10093000A003B70188E00E94A0038E01E1E0083A1D
:100940001E0709F008F465CFE8018A91803249F763
:1009500060CFE091A601F091A7018191F093A701EA
:10096000E093A6018A3021F41092A7011092A6010B
:10097000282F30E002C02FEF3FEFC901DF91CF9168
:100980001F910F91FF90EF900895BC018091B900E5
:100990008E7F8093B9008091B9008D7F8093B900DC
:1009A00080E89EE30E945109603130F0862F90E08C
:1009B000409795958795682F6093B800089581E0DA
:1009C00087B983E088B988E290E00E94C504ECEB27
:1009D000F0E08081846080830895CF92DF92EF926F
:1009E000FF920F931F9387E68093C40088E1809362
:1009F000C1001092F9011092F8011092FB011092BF
:100A0000FA018091C10080688093C10067E971E0BC
:100A100070931A0360931903709316036093150380
:100A2000709318036093170380E091E00E945F06C3
:100A30000E94DF04109285001092840010928000C2
:100A400085E08093810082E080936F0087E19DE3E1
:100A500090930B0380930A031092CA021092CB0268
:100A600010920C0310920D0310920E0310920F03BC
:100A70008FEF9FEFAFEFBFE78093100390931103C9
:100A8000A0931203B09313038093D2029093D302E6
:100A9000A093D402B093D5021092CE021092CF024E
:100AA0001092D0021092D1027894F894109203031D
:100AB0007894F894109204037894F89481E08093E9
:100AC00005037894F4ECCF2EF2E0DF2EEDE0EE2E6D
:100AD000E3E0FE2E012D112D2DE033E040E050E04B
:100AE00068EE73E08EE795E00E94E90183B7817FAD
:100AF00083BF83B7816083BF8895FECF2F923F92DB
:100B00004F925F926F927F928F929F92AF92BF921D
:100B1000CF92DF92EF92FF920F931F93CF93DF93C9
:100B200054EA552E42ED242E04E830E2632E31E0E3
:100B3000732E20E3822E21E0922E93ED392E82E453
:100B4000A82E81E0B82E10E6C12E11E0D12EBEE60F
:100B5000EB2EB1E0FB2EA4E94A2ECFE7D1E08CE0EA
:100B600091E00E949D068091BC008B7F8093BC0029
:100B70008091BC0084608093BC00399A5092BC0084
:100B800085E191E00E949D0620E030E002C02F5FE9
:100B90003F4F8091BC0087FD04C083E0283E3807AA
:100BA000B1F72092BB000093BC007F926F920E942D
:100BB000880620E030E00F900F9002C02F5F3F4F7B
:100BC0008091BC0087FD04C083E0283E3807B1F760
:100BD0001092BB000093BC009F928F920E948806E7
:100BE00020E030E00F900F9002C02F5F3F4F8091C8
:100BF000BC0087FD04C083E0283E3807B1F750925F
:100C0000BC003092BB000093BC00BF92AF920E9428
:100C1000880620E030E00F900F9002C02F5F3F4F1A
:100C20008091BC0087FD04C083E0283E3807B1F7FF
:100C30008091BC008F70806C8093BC00DF92CF925B
:100C40000E94880620E030E00F900F9002C02F5FD6
:100C50003F4F8091BC0087FD04C083E0283E3807E9
:100C6000B1F71091BB00FF92EF920E94880620E03E
:100C700030E00F900F9002C02F5F3F4F8091BC007B
:100C800087FD04C083E0283E3807B1F74092BC00DE
:100C9000812F90E09F938F93DF93CF930E948806DC
:100CA0008091BC008B7F8093BC008091BC008460ED
:100CB0008093BC000F900F900F900F9050CFEF9249
:100CC000FF920F931F93CF93DF937C018B01DB0186
:100CD00013968C9181FD03C0CFEFDFEF13C0C0E00E
:100CE000D0E00BC0D8011896ED91FC911997B8018E
:100CF0000995892B11F0CFEFDFEFF70181917F018B
:100D0000882381F7CE01CDB7DEB7E6E00C948D09DC
:100D1000A0E0B0E0EEE8F6E00C947509FE0135962F
:100D200061917191AF0180911703909118030E9416
:100D3000D2062096E2E00C9491090F931F93CF9373
:100D4000DF938C01E0911703F0911803838181FFF9
:100D500021C0C0E0D0E00DC0E0911703F09118036E
:100D600020853185BF01F9010995892B11F0CFEF5D
:100D7000DFEFF80181918F01882371F7E09117036C
:100D8000F091180320853185BF018AE0F9010995AA
:100D9000892B11F0CFEFDFEFCE01DF91CF911F91C3
:100DA0000F910895ABE0B0E0E8EDF6E00C94650932
:100DB0003C012B015A01FC0117821682838181FDBF
:100DC00003C06FEF7FEFC8C19AE0892E1E0108941F
:100DD000211C311CF3012381F20123FD859123FFA6
:100DE00081912F01882309F4B4C1853239F423FDA0
:100DF000859123FF81912F01853229F4B30190E081
:100E00000E94C708E7CF982FDD24CC249924FFE166
:100E1000FD15D0F09B3269F09C3228F4903259F0E5
:100E2000933291F40EC09D3249F0903369F441E061
:100E300024C052E0D52A84E0D82A28C098E0D92AD4
:100E400025C0E0E1DE2A22C0D7FC29C0892F8053CB
:100E50008A3070F4D6FE05C0989C902C1124980E10
:100E600015C0C89CC02C1124C80EF0E2DF2A0EC0A9
:100E70009E3229F4D6FC6DC140E4D42A07C09C36CA
:100E800019F450E8D52A02C0983649F4F20123FD3E
:100E9000959123FF91912F01992309F0B8CF892FC4
:100EA0008554833018F08052833038F444E050E0A9
:100EB000A40EB51E5FE359830FC0933631F093370C
:100EC00079F0933509F056C020C0F50180818983FF
:100ED00042E050E0A40EB51E710101E010E012C026
:100EE000F501E080F180D6FC03C06FEF7FEF02C018
:100EF000692D70E042E050E0A40EB51EC7010E94CB
:100F0000BC088C015FE7D52214C0F501E080F180B8
:100F1000D6FC03C06FEF7FEF02C0692D70E042E0A6
:100F200050E0A40EB51EC7010E94B1088C0150E824
:100F3000D52AD3FE07C01AC0B30180E290E00E9418
:100F4000C708CA948C2D90E008171907A8F30EC0A3
:100F5000F701D7FC8591D7FE81917F01B30190E025
:100F60000E94C708C110CA94015010400115110514
:100F700079F7ECC0943611F0993671F5D7FE08C0B8
:100F8000F501E080F1800281138144E050E00AC065
:100F9000F501808191817C010027F7FC0095102FDD
:100FA00042E050E0A40EB51E5FE6D52217FF0AC04E
:100FB00010950095F094E094E11CF11C011D111DA9
:100FC00080E8D82A2AE030E0A101C801B7010E94D8
:100FD000F308F82EF21840C0953729F41D2D1F7E16
:100FE0002AE030E01DC01D2D197F9F3661F090373B
:100FF00020F4983509F0ADC00FC0903739F098371C
:1010000009F0A7C004C028E030E00AC0106114FD58
:10101000146020E130E004C014FD166020E132E0ED
:1010200017FF08C0F501608171818281938144E0DE
:1010300050E008C0F50180819181BC0180E090E022
:1010400042E050E0A40EB51EA1010E94F308F82E64
:10105000F2188FE7D82ED122D6FE0BC05EEFD52234
:10106000F91438F4D4FE07C0D2FC05C08FEED822A4
:1010700002C01F2D01C0192DD4FE0DC0FE01EF0DC1
:10108000F11D8081803319F499EED92208C01F5FC9
:10109000D2FE05C003C08D2D867809F01F5F0D2D8F
:1010A000D3FC14C0D0FE0FC01C1510F09F2C0BC039
:1010B0009F2C9C0C911A1C2D06C0B30180E290E07D
:1010C0000E94C7081F5F1C15C0F304C01C1510F454
:1010D000C11A01C0CC2404FF10C0B30180E390E02A
:1010E0000E94C70802FF1EC001FD03C088E790E010
:1010F00002C088E590E0B3010CC0802F867891F0A3
:1011000001FF02C08BE201C080E2D7FC8DE2B30197
:1011100090E00E94C70806C0B30180E390E00E94FF
:10112000C7089A94F914C0F3FA94F101EF0DF11D78
:10113000B301808190E00E94C708FF20A9F706C094
:10114000B30180E290E00E94C708CA94CC20C1F7A6
:1011500041CEF30166817781CB012B96E2E10C94BD
:101160008109FC010590615070400110D8F780950D
:1011700090958E0F9F1F0895FC0161507040019063
:101180000110D8F7809590958E0F9F1F08950F93AB
:101190001F93CF93DF938C01EB018B8181FF1BC0E9
:1011A00082FF0DC02E813F818C819D8128173907D8
:1011B00064F4E881F9810193F983E88306C0E88546
:1011C000F985802F0995892B31F48E819F810196B5
:1011D0009F838E8302C00FEF1FEFC801DF91CF9175
:1011E0001F910F910895FA01AA27283051F120315B
:1011F00081F1E8946F936E7F6E5F7F4F8F4F9F4FAB
:10120000AF4FB1E03ED0B4E03CD0670F781F891FEC
:101210009A1FA11D680F791F8A1F911DA11D6A0FBA
:10122000711D811D911DA11D20D009F468943F916D
:101230002AE0269F11243019305D3193DEF6CF016C
:101240000895462F4770405D4193B3E00FD0C9F732
:10125000F6CF462F4F70405D4A3318F0495D31FD9F
:101260004052419302D0A9F7EACFB4E0A6959795F2
:10127000879577956795BA95C9F7009761057105C8
:1012800008959B01AC010A2E069457954795379512
:101290002795BA95C9F7620F731F841F951FA01D6C
:1012A0000895AA1BBB1B51E107C0AA1FBB1FA617AD
:1012B000B70710F0A61BB70B881F991F5A95A9F7FF
:1012C00080959095BC01CD0108952F923F924F9249
:1012D0005F926F927F928F929F92AF92BF92CF92C6
:1012E000DF92EF92FF920F931F93CF93DF93CDB7CF
:1012F000DEB7CA1BDB0B0FB6F894DEBF0FBECDBF47
:1013000009942A88398848885F846E847D848C8417
:101310009B84AA84B984C884DF80EE80FD800C8120
:101320001B81AA81B981CE0FD11D0FB6F894DEBF03
:0C1330000FBECDBFED010895F894FFCF73
:10133C000A0D20545254200A0D0A0D005374617288
:10134C0074696E670073746172742073656E7400D7
:10135C0073656E74206779726F207772697465009B
:10136C0073656E74206779726F2061646472657343
:10137C00730073746172742073656E7420616E6493
:10138C00206779726F20726561642073656E7400DA
:10139C0073656E742061636B2F6E61636B00776194
:1013AC006974696E6720666F722064617461000AEB
:1013BC0057484F5F414D5F49202830783030293AEB
:1013CC0020307825780A000000000300000000A0FF
:0613DC0003F9030000000C
:00000001FF
