:100000000C9472000C9491000C9491000C9491004B
:100010000C9491000C9491000C9491000C9491001C
:100020000C9491000C9491000C9491000C9491000C
:100030000C9422020C9491000C9491000C94910069
:100040000C940D020C9491000C9491000C9491006E
:100050000C9491000C9491000C9491000C949100DC
:100060000C9491000C9491000C9491000C949100CC
:100070000C9491000C9491000C9491000C949100BC
:100080000C9491000C9491000C949100001F0000BE
:1000900000001F00001F101010101F00001F181874
:1000A00018181F00001F1C1C1C1C1F00001F1E1EF8
:1000B0001E1E1F00001F1F1F1F1F1F0003070F1FF3
:1000C0000F070300181C1E1F1E1C18004C43442061
:1000D000496E697469616C697A6564000043617096
:1000E0003D00000011241FBECFEFD0E4DEBFCDBF26
:1000F00011E0A0E0B1E0E4E9FBE000E00BBF02C0EA
:1001000007900D92A430B107D9F711E0A4E0B1E057
:1001100001C01D92AF31B107E1F70E94BD020C94FE
:10012000C8050C940000282F207F28B9409A429AD5
:1001300020E43FE1F9013197F1F742984098F90145
:100140003197F1F790E044E0880F991F4A95E1F765
:1001500088B9409A429AC9010197F1F742984098AC
:10016000C9010197F1F70895282F207F28B9429AF5
:1001700020E43FE1F9013197F1F74298F901319715
:10018000F1F790E054E0880F991F5A95E1F788B98C
:10019000429AC9010197F1F74298C9010197F1F715
:1001A000089581E00E94B400089582E00E94B400A6
:1001B00008950F931F93CF93DF93062F009749F075
:1001C000EC0110E004C089910E9493001F5F10179A
:1001D000D0F3DF91CF911F910F910895623031F0EC
:1001E000633031F0613029F4805C03C08C5E01C063
:1001F0008C5A80680E94B40008951F93CF93DF93B8
:10020000EC01862F642F0E94EE0010E003C00E94D4
:1002100093001F5FFE01E10FF11D84918823B9F760
:10022000DF91CF911F910895EF92FF920F931F934B
:10023000CF93DF937C01162F110F110F110F106454
:10024000C0E0D0E0F701EC0FFD1F0491812F8C0F6F
:100250000E94B400802F0E9493002196C830D105DF
:1002600089F7DF91CF911F910F91FF90EF90089543
:100270001F93CF93DF9380E69AEE0197F1F718B8BA
:1002800018B887B1806F87B987B1876087B980E375
:1002900088B9429A20E43FE1F9013197F1F7429899
:1002A000F9013197F1F788B9429AC9010197F1F73D
:1002B0004298C9010197F1F780E288B9429AC901D1
:1002C0000197F1F74298C9010197F1F788E20E947E
:1002D000B4008CE00E94B400CCE8D0E060E0162FBF
:1002E0001F5FCE010E9414012896612F1830B9F7C4
:1002F000DF91CF911F9108950F931F93082F10E066
:1003000004C08EE10E94B4001F5F1017D0F31F914C
:100310000F9108950F931F93082F10E004C088E1F8
:100320000E94B4001F5F1017D0F31F910F91089522
:100330008EE00E94B40008958FE00E94B4000895FA
:100340008CE00E94B400089588E00E94B4000895F3
:100350008CE00E94B40008950F931F93082F10E0C3
:1003600004C080E10E94B4001F5F1017D0F31F91FA
:100370000F9108950F931F93082F10E004C084E19C
:100380000E94B4001F5F1017D0F31F910F910895C2
:10039000DF92EF92FF920F931F93CF93DF93D42EB0
:1003A00096E0899FC0011124242F30E0AC01429FC8
:1003B000C001439F900D529F900D112470E00E9448
:1003C000DE02EB01CB0166E070E00E94CA02E82E7B
:1003D000FF2400E010E012C0C8010596C817D90735
:1003E00010F085E006C0C017D10710F08E2D01C0B7
:1003F00080E00E949300F3940A5F1F4FFD1460F3A6
:10040000DF91CF911F910F91FF90EF90DF900895B2
:100410008BB194E089278BB908951F920F920FB684
:100420000F9211248F9380911601882329F08091D7
:1004300016018150809316018F910F900FBE0F907F
:100440001F9018951F920F920FB60F9211248F9341
:100450009F938BB194E089278BB98091860090910E
:10046000870090931801809317019F918F910F90AF
:100470000FBE0F901F9018950E9438010E94A00196
:100480000E94D10080E060E00E94EE008CEC90E0E1
:1004900060E040E00E94FD00089592E094BD83E09A
:1004A00085BD90936E0089EF87BD81E480938100C4
:1004B00090E290936F0084E080BF96BB14B80E94D6
:1004C0003C020E94D1008DED90E060E040E00E948F
:1004D000FD001092180110921701529A7894089515
:1004E0000F931F9314B884E084B980911701909101
:1004F000180185369105E8F1809117019091180156
:1005000067EC7BE20E94DE0270931A01609319018E
:1005100004E011E02091190130911A0100D000D0BF
:1005200000D0EDB7FEB73196ADB7BEB712961C93AB
:100530000E93119780E091E0938382833583248327
:100540000E94F1028DB79EB706960FB6F8949EBF33
:100550000FBE8DBF84E060E00E94EE00F8010190C4
:100560000020E9F73197E01BF10BC8016E2F0E94C4
:10057000D90014B81F910F9108951F930E944D0246
:1005800018EC809116018823E1F7109316010E9460
:100590007002F7CFAA1BBB1B51E107C0AA1FBB1FEC
:1005A000A617B70710F0A61BB70B881F991F5A95FF
:1005B000A9F780959095BC01CD01089597FB092E70
:1005C00007260AD077FD04D0E5DF06D000201AF414
:1005D000709561957F4F0895F6F7909581959F4F9F
:1005E00008950F931F93DF93CF93CDB7DEB72E9768
:1005F0000FB6F894DEBF0FBECDBF0D891E8986E011
:100600008C831A8309838FEF9FE79E838D839E01DE
:10061000275E3F4FCE0101966F89788DA9010E9418
:1006200022032F813885020F131FF80110822E96A6
:100630000FB6F894DEBF0FBECDBFCF91DF911F91F3
:100640000F9108952F923F924F925F926F927F92F7
:100650008F929F92AF92BF92CF92DF92EF92FF92D2
:100660000F931F93DF93CF93CDB7DEB72B970FB6C2
:10067000F894DEBF0FBECDBF3C012B015A01FC0137
:1006800017821682838181FD03C06FEF7FEFC6C1A1
:100690009AE0892E1E010894211C311CF30123814C
:1006A000F20123FD859123FF81912F01882309F415
:1006B000B2C1853239F423FD859123FF81912F0149
:1006C000853229F490E0B3010E943E05E7CF982FD0
:1006D000FF24EE249924FFE1FF15D0F09B3269F04E
:1006E0009C3228F4903259F0933291F40EC09D322E
:1006F00049F0903369F441E024C052E0F52A84E0E7
:10070000F82A28C098E0F92A25C0E0E1FE2A22C094
:10071000F7FC29C0892F80538A3070F4F6FE05C09B
:10072000989C902C1124980E15C0E89CE02C112464
:10073000E80EF0E2FF2A0EC09E3229F4F6FC6BC1EF
:1007400040E4F42A07C09C3619F450E8F52A02C0A8
:10075000983649F4F20123FD959123FF91912F01E1
:10076000992309F0B8CF892F8554833018F080522F
:10077000833038F444E050E0A40EB51E5FE35983A3
:100780000FC0933631F0933779F0933509F056C0A6
:1007900020C0F5018081898342E050E0A40EB51E9F
:1007A000610101E010E012C0F501C080D180F6FCCB
:1007B00003C06FEF7FEF02C0692D70E042E050E0B0
:1007C000A40EB51EC6010E9433058C015FE7F52219
:1007D00014C0F501C080D180F6FC03C06FEF7FEF3D
:1007E00002C0692D70E042E050E0A40EB51EC601C3
:1007F0000E9428058C0150E8F52AF3FE07C01AC0B4
:1008000080E290E0B3010E943E05EA948E2D90E0D4
:1008100008171907A8F30EC0F601F7FC8591F7FE3B
:1008200081916F0190E0B3010E943E05E110EA94CE
:10083000015010400115110579F7EAC0943611F006
:10084000993669F5F7FE08C0F501208131814281B2
:10085000538184E090E00AC0F501808191819C0180
:10086000442737FD4095542F82E090E0A80EB91E32
:100870009FE6F92257FF09C0509540953095219584
:100880003F4F4F4F5F4FE0E8FE2ACA01B901A10177
:100890002AE030E00E946A05D82ED21840C0953771
:1008A00029F41F2D1F7E2AE030E01DC01F2D197F67
:1008B0009F3661F0903720F4983509F0ACC00FC036
:1008C000903739F0983709F0A6C004C028E030E02E
:1008D0000AC0106114FD146020E130E004C014FD72
:1008E000166020E132E017FF08C0F50160817181D8
:1008F0008281938144E050E008C0F50180819181BC
:10090000BC0180E090E042E050E0A40EB51EA101E1
:100910000E946A05D82ED2188FE7F82EF122F6FE33
:100920000BC05EEFF522D91438F4F4FE07C0F2FCD8
:1009300005C08FEEF82202C01D2D01C0192DF4FE56
:100940000DC0FE01ED0DF11D8081803319F499EE8B
:10095000F92208C01F5FF2FE05C003C08F2D867804
:1009600009F01F5F0F2DF3FC14C0F0FE0FC01E1521
:1009700010F09D2C0BC09D2C9E0C911A1E2D06C0B4
:1009800080E290E0B3010E943E051F5F1E15C0F398
:1009900004C01E1510F4E11A01C0EE2404FF0FC0BC
:1009A00080E390E0B3010E943E0502FF1DC001FDFF
:1009B00003C088E790E00EC088E590E00BC0802F70
:1009C000867891F001FF02C08BE201C080E2F7FC63
:1009D0008DE290E0B3010E943E0506C080E390E006
:1009E000B3010E943E059A94D914C0F3DA94F10140
:1009F000ED0DF11D808190E0B3010E943E05DD20E8
:100A0000A9F706C080E290E0B3010E943E05EA9497
:100A1000EE20C1F743CEF30166817781CB012B969F
:100A20000FB6F894DEBF0FBECDBFCF91DF911F91FF
:100A30000F91FF90EF90DF90CF90BF90AF909F907D
:100A40008F907F906F905F904F903F902F90089580
:100A5000FC010590615070400110D8F78095909589
:100A60008E0F9F1F0895FC0161507040019001108E
:100A7000D8F7809590958E0F9F1F08950F931F9321
:100A8000CF93DF938C01EB018B8181FF1BC082FF31
:100A90000DC02E813F818C819D812817390764F418
:100AA000E881F9810193F983E88306C0E885F98537
:100AB000802F0995892B31F48E819F8101969F8328
:100AC0008E8302C00FEF1FEFC801DF91CF911F91FE
:100AD0000F910895FA01AA27283051F1203181F1B0
:100AE000E8946F936E7F6E5F7F4F8F4F9F4FAF4F36
:100AF000B1E03ED0B4E03CD0670F781F891F9A1F49
:100B0000A11D680F791F8A1F911DA11D6A0F711DFC
:100B1000811D911DA11D20D009F468943F912AE008
:100B2000269F11243019305D3193DEF6CF010895F0
:100B3000462F4770405D4193B3E00FD0C9F7F6CF21
:100B4000462F4F70405D4A3318F0495D31FD4052E9
:100B5000419302D0A9F7EACFB4E0A695979587957F
:100B600077956795BA95C9F700976105710508955E
:100B70009B01AC010A2E069457954795379527950A
:100B8000BA95C9F7620F731F841F951FA01D0895A2
:040B9000F894FFCF07
:040B9400252D750096
:00000001FF
